:020000040800F2
:1000000030040020C5000008E90E0008DD0D0008DE
:1000100000000000000000000000000000000000E0
:10002000000000000000000000000000A10F000818
:100030000000000000000000310F0008A30F0008BE
:10004000D700000800000000910F0008D70000084A
:10005000D7000008D7000008D7000008D700000824
:1000600000000000D7000008D7000008D7000008F3
:10007000D7000008D7000008D700000800000000E3
:10008000D70000080000000000000000D7000008B2
:1000900000000000D7000008D7000008D7000008C3
:1000A00000000000D700000800000000D700000892
:1000B0000348854600F03CF80048004781100008DE
:1000C000300400200448804704480047FEE7FEE76C
:1000D000FEE7FEE7FEE7FEE705100008B1000008B6
:1000E00030B50B46014600202022012409E00D46D0
:1000F000D5409D4205D31D469540491B2546954058
:1001000040191546521E002DF1DC30BDD2B201E07F
:100110000270401C491EFBD270470022F6E710B562
:1001200013460A4604461946FFF7F0FF204610BD65
:10013000064C0125064E05E0E36807CC2B430C3C3A
:1001400098471034B442F7D3FFF7B6FF6C1100089C
:100150008C11000831B500F0B5F8009C0546601C14
:1001600000D0641C00F0AEF8401BA042FAD338BDAA
:10017000F8B500238DE001249C40A44622407DD0A8
:100180004C68022C01D0122C0CD1DC08A4002718DA
:100190003C6A5D07ED0E0F26AE40B4430E69AE40DB
:1001A00026433E6205685E000324B4400F79A543F0
:1001B000BF07BF0FB7402F4307604D68012D05D023
:1001C000022D03D0112D01D0122D0ED18568CF68DC
:1001D000A543B7402F43876047686546AF430D7915
:1001E000ED06ED0F9D403D434560C568A5438C6815
:1001F000B4402C43C4604C68E40049D5284CA56940
:1002000001263543A561A4699D0834400094254C1E
:10021000AD002F19BC689D072E0F0F25B540AC43CC
:100220000925ED06A84201D100250FE01E4DA84288
:1002300001D101250AE01D4DA84201D1022505E0AA
:100240001B4DA84201D1032500E00525B5402543FB
:10025000BD60184C25684E689543F60300D51543DC
:10026000256065684E689543B60300D51543656003
:10027000A5684E689543F60202D500E008E01543F4
:10028000A560E5684E689543B60200D51543E56064
:100290005B1C0A681446DC4000D06CE7F8BD000027
:1002A000001002400000014000040048000800481F
:1002B000000C004800040140002A01D08161704711
:1002C0008162704701480068704700000800002004
:1002D00002480168491C01607047000008000020C6
:1002E00010B506480168102211430160002000F09B
:1002F00007F800F017F8002010BD000000200240B1
:1003000010B5044600F04AF97D21C900FFF7E8FE68
:1003100000F04CFD00222146501E00F021F8002084
:1003200010BD000008B508488169012211438161B0
:10033000816911400091C26901040A43C261C06928
:100340000840009008BD000000100240C106C90E20
:1003500001208840014908607047000000E100E08A
:1003600010B500F0C3FD10BD05480168022211431D
:1003700001600448016904221143016130BF7047E4
:100380000070004000ED00E0F8B505460068354C0F
:10039000C00352D5E0690026C00007D4E1692004FB
:1003A0000143E161E1690140012600912E480168A5
:1003B000C90510D40168821511430160FFF782FF5F
:1003C000074604E0FFF77EFFC01B642824D82648B8
:1003D0000068C005F6D5206A03273F02384020D0C8
:1003E0006968394081421CD0206A226AB8430121E1
:1003F00009040A432262226A8A4322622062C007F9
:100400000FD0FFF75FFF009008E0FFF75BFF009958
:10041000411A1648814201D90320F8BD206A80079D
:10042000F3D5206A6968B84308432062002E04D0DF
:10043000E169012000078143E1612878C00705D008
:10044000206BA96880088000084320632878800614
:1004500005D5206B10218843E968084320630020FC
:10046000F8BD00000010024000700040881300003A
:10047000F8B5054644480E460068C007C00FB042B4
:100480000AD24148016849084900314301600068C7
:10049000C007C00FB0425CD128783C4C800705D51E
:1004A0006068F0218843A968084360602878C00725
:1004B0003FD06868012813D02168022813D089072B
:1004C000002946DA61688908890001436160FFF705
:1004D000F9FE6968074601290DD0022917D024E0EA
:1004E00021688903ECE78901EAE7FFF7EBFEC11B0E
:1004F0002748814217D860680007800F0128F4D18F
:1005000017E0FFF7DFFEC11B214881420BD860686E
:100510000007800F0228F4D10BE0FFF7D3FEC11BC8
:100520001B48814201D90320F8BD60680007800F95
:10053000F3D115480168C907C90FB1420BD9016849
:1005400049084900314301600068C007C00FB0424C
:1005500001D00120F8BD2878400706D56068072142
:1005600009028843E9680843606000F01DF861688B
:10057000084A0906090F515CC84007490860002075
:10058000FFF7BEFE0020F8BD002002400010024030
:10059000881300005C1100080C000020014800686E
:1005A000704700000C00002010B512A30FCB88B0DC
:1005B0006C460FC413A30FCB0FC416494A680C2016
:1005C000134603401448042B0FD0082B0DD193027F
:1005D0001B0F6C46E45CC96A04AB0907090F595C40
:1005E000D20304D5FFF77CFD604308B010BD0B4873
:1005F0006043FAE702030405060708090A0B0C0D1D
:100600000E0F10100102030405060708090A0B0C5F
:100610000D0E0F100010024000127A0000093D007C
:10062000FEB504460078D04DC00747D06868000783
:10063000800F012807D068680007800F022809D1C1
:100640006868C00306D52868800337D5606800282D
:100650007ED033E0012062680004012A11D08100BD
:10066000002A01D0052A10D02A6882432A6028680F
:10067000884328606068002814D0FFF723FE0646F0
:100680000CE0296801432960F4E72A680A432A60DC
:10069000F7E7FFF717FE801B64286FD828688003F0
:1006A000F7D50BE0FFF70EFE064604E0FFF70AFE63
:1006B000801B6428F1D828688003F7D420780126AD
:1006C000800700283BDA68680007800F07D0686859
:1006D0000007800F022809D16868C00306D4286883
:1006E000800715D5E068012832D111E0E0680028C4
:1006F000286815D030432860FFF7E4FD074604E082
:10070000FFF7E0FDC01B0228C7D828688007F7D58F
:100710002868F82188432169C900084328600EE051
:10072000400840002860FFF7CDFD074604E0FFF7D2
:10073000C9FDC01B0228B0D828688007F7D42078EC
:10074000000724D5E0690028686A10D0304300E033
:1007500008E16862FFF7B6FD074604E0FFF7B2FD67
:10076000C01B022899D8686A8007F7D50FE04008B7
:1007700040006862FFF7A6FD074605E09DE0FFF731
:10078000A1FDC01B022888D8686A8007F7D42078AA
:1007900004274007002860DA00200190E869C000C3
:1007A00008D4E969B8060143E961E969014001201B
:1007B000009101906D480168C90511D40168821546
:1007C00011430160FFF77EFD009005E0FFF77AFD21
:1007D0000099401A642870D864480068C005F5D5AF
:1007E000A06801280AD0002801D0052810D0286A66
:1007F000400840002862286AB84301E0286A304374
:100800002862A068002812D0FFF75CFD00900AE083
:10081000286A38432862F1E7FFF754FD0099411A2E
:100820005348814249D8286A8007F5D50DE0FFF783
:1008300049FD009006E0FFF745FD0099411A4C483C
:1008400081423AD8286A8007F5D40198002804D05C
:10085000E969012000078143E9612078C00635D5A8
:10086000606901280CD0401D686B23D03843686351
:10087000686B400840006863FFF724FD064622E0ED
:10088000686B38436863686B30436863FFF71AFD31
:10089000064604E0FFF716FD801B02285BD8686B54
:1008A0008007F7D5686BF8218843A169C900084320
:1008B00068630BE0B8436863F4E74CE0FFF702FDC0
:1008C000801B022847D8686B8007F7D4206A00286D
:1008D00046D069680907890F022943D001263606E8
:1008E0000228286805D0B0432860FFF7EBFC0446D7
:1008F00033E0B0432860FFF7E5FC074604E0FFF76C
:10090000E1FCC01B022826D828688001F7D4E86AD9
:10091000E16A000900010843E862616AA06A0843CD
:1009200069683D2212049143084368602868304397
:100930002860FFF7C7FC044604E0FFF7C3FC001B78
:10094000022808D828688001F7D509E0FFF7BAFC2B
:10095000001B022801D90320FEBD28688001F5D4C0
:100960000020FEBD0120FEBD0010024000700040CE
:100970008813000002480168491C016070470000AC
:100980000000002010B5044600688168C9040CD539
:10099000C068C00509D52046FFF7ECFF2168C8688C
:1009A00080221040FF388238C8600120024940048C
:1009B00048610120607710BD0004014070B504005B
:1009C00003D0607F002802D006E0012070BD002027
:1009D0002077204600F04CF8022060772168CA207A
:1009E0004862216853204862204600F0B5FAFF258E
:1009F0000426002824D1206881681C4A11408160A7
:100A00002168886862686369104322691A43104349
:100A100088602168E0680861206801692289120401
:100A2000114301612068C16880229143C160206840
:100A30008068800608D4204600F09EF9002803D084
:100A4000206845626677C0E72068016C0122920445
:100A5000914301642068016CA2691143016420681C
:100A6000456201206077002070BD0000BFFF8FFF4E
:100A700010B50068084988420DD10848016A012272
:100A8000D20311430162002211460220FFF768FCE5
:100A90000220FFF75BFC10BD002800400010024060
:100AA000F8B50446007F0B4601283ED00120207790
:100AB0000220607720681F46002620378068002AC1
:100AC00035D040064AD5187800F033FA387800F06F
:100AD00030FA18789D78000405435878D9780002D8
:100AE0000904084305433878996900060543D86925
:100AF0000543586905435868084300902168CA2097
:100B0000486221685320486220688268FF210131D1
:100B10008A4382602168C86880221040FF3882388A
:100B2000C860FFF7CFFB074628E00220F8BD40066B
:100B300000D4DE70187800F004FA0504587800F04C
:100B400000FA00020543987800F0FBF90543D878D5
:100B500000040543387800F0F4F9C5E7DE70B5E726
:100B6000FFF7B0FBC11B7D20C000814206D9216880
:100B7000FF204862032060772677F8BD2068C068B0
:100B8000C007EDD02068C5612168009848642068DE
:100B90008268FF2101310A43826020688168012256
:100BA00012031143816008480268012149040A4385
:100BB000026082680A4382602168FF204862012047
:100BC000607726770020F8BD00040140F8B50446A0
:100BD000007F0B46012815D0012020770220607786
:100BE0005878002A10D000F0A4F9987800F0A1F904
:100BF000D8789D7800040543587819780002490395
:100C0000084316E00220F8BDC10603D5EF210840D5
:100C10000A305870D87800F094F90504587800F03C
:100C200090F900020543987800F08BF90543187895
:100C3000400305432168CA20486221685320486266
:100C4000204600F089F90026FF27002811D110481E
:100C50000540206845602068C16880229143C160DA
:100C60002068806880060BD4204600F085F80028B4
:100C700006D0206847620420607726770120F8BDFF
:100C8000206847620120607726770020F8BD0000C9
:100C90003FFFFF00F8B50446007F0D4601280ED047
:100CA0000120207702206077206800278068002AD2
:100CB00007D0400618D5287800F03BF915E002204F
:100CC000F8BD400600D4EF70287800F03AF9060429
:100CD000687800F036F900020643A87800F031F990
:100CE0000643E878000409E0EF702878AE78000445
:100CF00006436878E978000209040843064321683E
:100D0000CA204862216853204862204600F024F936
:100D100000281ED1174806402068066020688168B8
:100D200001229204914381602969E868084321689F
:100D30008A68104388602068C16880229143C1603E
:100D40002068806880060CD4204600F015F8002842
:100D500007D02168FF2048620420607727770120B0
:100D6000F8BD2168FF2048620120607727770020C6
:100D7000F8BD00007F7F7F0070B504460068C16841
:100D8000A0229143C160FFF79DFA7D260546F6003B
:100D900006E0FFF797FA401BB04201D9032070BD6F
:100DA0002068C0688006F4D5002070BD094910B5E0
:100DB000401E884201D9012010BD074C606103210B
:100DC000081F00F093F80020A06107202061002098
:100DD00010BD0000FFFFFF0000E000E0FEE70000A4
:100DE00070B586B014216846FFF797F91848426934
:100DF000012149040A434261406909260840F60678
:100E00000590002201213046FFF756FA01226021A9
:100E10003046FFF751FA01240025009402956946F7
:100E2000304603950194FFF7A3F90E200090019539
:100E3000694602953046FFF79BF96020009011202B
:100E400001AA31C269463046FFF792F906B070BD7B
:100E50000010024030B591B014216846FFF75DF9EB
:100E60000024282106A80594FFF757F91C491D48BE
:100E700012C07F2101608460C460FF210461416071
:100E80000838FFF79BFD6846047044708470039433
:100E90000122694613480494FFF7FCFE01256846C9
:100EA000057545758575C4752A4605A90D48FFF772
:100EB0008DFE032168460176447684760794099472
:100EC0000A940B940C9408A80D94057628020F90B0
:100ED000012206A90348FFF7E3FD11B030BD000071
:100EE0000028004010000020704700008307FF2208
:100EF000DB0E9A408907090E994000280BDA00079B
:100F0000000F0838830808489B001818C3699343EA
:100F10000B43C3617047830804489B001B18186883
:100F2000904308431860704700ED00E000E400E0E3
:100F3000704701090A2200075143000F4018C0B250
:100F40007047002102E00A38C0B2491C0A28FAD2D0
:100F50000907090E0843704770B504460068C16868
:100F6000490613D40021C943C160FFF7ABF97D26C0
:100F70000546F60006E0FFF7A5F9401BB04201D98F
:100F8000032070BD2068C0684006F4D5002070BD05
:100F900010B50248FFF7F6FC10BD0000100000205D
:100FA000704710B5FFF794F910BD10B594B030211B
:100FB0006846FFF7B2F800240F940A2000900D94C1
:100FC00001200C9412940E94119403901394102108
:100FD00007901094089404916846FFF721FB0720BE
:100FE0000C900D940E9400210F940CA8FFF740FA7A
:100FF000012000041090C011119010A8FFF7C4F94F
:1010000014B010BD1348016801221143016041680A
:10101000114A114041600168104A114001600168A5
:10102000012292049143016041683F2212049143DE
:101030004160C16A09090901C162016BFF221432D2
:1010400091430163416B490849004163002181607C
:1010500070470000001002400CB8FF08FFFFF6FECA
:1010600002E008C8121F08C1002AFAD17047704771
:10107000002001E001C1121F002AFBD170470000CF
:10108000FFF72EF9FFF791FFFFF7AAFEFFF7E2FE49
:101090002E480068816801221203114381600925EE
:1010A0000122ED0611462846FFF706F92848FFF70A
:1010B00051F8002201212846FFF7FEF8254C206850
:1010C0000028FCD0002220212846FFF7F5F8012255
:1010D00011462846FFF7F0F84B20C000FFF73AF81A
:1010E000012220212846FFF7E7F801224021284667
:1010F000FFF7E2F83220FFF72DF8002240212846C2
:10110000FFF7DAF8E620FFF725F80122202128462C
:10111000FFF7D2F8012240212846FFF7CDF805203D
:10112000FFF718F8002201212846FFF7C5F860688C
:10113000401C606000202060FFF78CFE06480168BC
:10114000042211430160FFF70FF9B8E710000020F7
:101150008813000000000020007000400000000024
:101160000000000001020304060708098C110008B2
:101170000000002010000000601000089C11000812
:101180001000002020040000701000080100000082
:0C119000000000000000000000127A00C7
:04000005080000B13E
:00000001FF
